:020000040800F2
:1000000000000120050300080B030008110300088D
:1000100033030008390300085B03000800000000F8
:100020000000000000000000000000007D03000848
:100030008303000800000000890300088F03000804
:10004000AD030008AD030008AD030008AD030008D0
:10005000AD030008AD030008AD030008AD030008C0
:10006000AD030008AD030008AD030008AD030008B0
:10007000AD030008AD030008AD030008AD030008A0
:10008000AD030008AD030008AD0300080000000048
:10009000000000000000000000000000AD030008A8
:1000A000AD030008AD030008AD030008AD03000870
:1000B000AD030008AD030008AD030008AD03000860
:1000C000AD030008AD030008AD030008AD03000850
:1000D000AD030008AD030008AD03000800000000F8
:1000E000AD030008AD030008AD03000800000000E8
:1000F000000000000000000000000000AD03000848
:1001000000000000AD030008AD030008AD030008C7
:1001100000000000000000000000000000000000DF
:10012000AD030008AD030008AD030008AD030008EF
:10013000AD03000800000000000000000000000007
:10014000000000000000000000000000AD030008F7
:10015000AD030008AD030008AD030008AD030008BF
:10016000AD030008AD03000800000000000000001F
:10017000000000000000000000000000000000007F
:1001800000000000AD0300080000000000000000B7
:10019000AD03000880B596B000AF00F037F94F4BC3
:1001A0007B6524E07B6D1A1D7A651B683B647B6D63
:1001B0001A1D7A651B68FB637B6D1A1D7A651B68C7
:1001C000BB633B6C7B63FB6B3B63BB6BFB623B6B5F
:1001D000BB6207E07A6B131D7B63BB6A191DB962B2
:1001E00012681A60FA6ABB6A9A42F3D800BF7B6D44
:1001F0003B4A9342D6D33B4B3B651AE03B6D1A1DFD
:100200003A651B68BB643B6D1A1D3A651B687B64CD
:10021000BB6C7B627B6C3B627B6AFB6104E0FB69CD
:100220001A1DFA6100221A603A6AFB699A42F6D8EE
:1002300000BF3B6D2C4A9342E0D300F0F5F83A1D25
:1002400007F108031146184600F0CEF8274A284B5C
:10025000D31A9B103B610023FB6007E0244AFB6834
:1002600052F823309847FB680133FB603A69FB681A
:100270009A42F3DC1F4A204BD31A9B103B610023A8
:10028000FB6007E01C4AFB6852F823309847FB6884
:100290000133FB603A69FB689A42F3DC00BFBB683C
:1002A0007A681146184600F01BFAF864134A144B9A
:1002B000D31A9B10BB61BB697B6108E07B69013B82
:1002C0000F4A52F8233098477B69013B7B617B6979
:1002D000002BF3DC00BFF86C00F080F8B4030008DA
:1002E000CC030008CC030008DC030008DC03000892
:1002F000DC030008DC030008DC030008DC03000862
:10030000DC0300082548004700BF80B400AFFEE7CB
:100310001EF0040F0CBFEFF30880EFF30980714665
:100320001F4A104700BF80B483B000AF78603960C7
:10033000FEE780B400AFFEE71EF0040F0CBFEFF342
:100340000880EFF309807146164A104700BF80B459
:1003500083B000AF78603960FEE71EF0040F0CBF79
:10036000EFF30880EFF3098071460F4A104700BF92
:1003700080B483B000AF78603960FEE780B400AF2E
:10038000FEE780B400AFFEE780B400AFFEE780B4C4
:1003900000AF00BFBD4680BC70470000950100085B
:1003A000270300084F0300087103000880B400AF62
:0203B000FEE766
:1003B40018150008000000201C0000201815000873
:1003C40000000010000000101C0000202C00002081
:0803D400000000100000001001
:1003DC0080B582B000AF786000F03CF880B483B098
:1003EC0000AF786039607B6801221A603B68034A71
:1003FC001A6000BF0C37BD4680BC7047000000205F
:10040C0080B500AF00F02AF8024B034A9A6000BF97
:10041C0080BD00BF00ED00E00000000880B500AF1B
:10042C0000F028F800BF80BD80B400AFBFF34F8F41
:10043C0000BF064BDB6803F4E0620449044B134332
:10044C00CB60BFF34F8F00BF00BFFDE700ED00E0B6
:10045C000400FA0580B500AFFFF7E6FF80B400AFEB
:10046C00034B4FF000629A6000BFBD4680BC7047E2
:10047C0000ED00E080B487B000AF00233B610023A7
:10048C007B610223FB600023BB6002237B60344B47
:10049C009B6803F00C033B613B69082B11D03B6953
:1004AC00082B44D83B69002B03D03B69042B04D0A8
:1004BC003DE02C4B2C4A1A603DE02A4B2B4A1A602B
:1004CC0039E0274B5B689B0D03F00103BB60244BA9
:1004DC005B6803F03F037B60BB68002B0CD0234AA6
:1004EC007B68B2FBF3F31E4A52689209C2F308020E
:1004FC0002FB03F37B610BE01B4A7B68B2FBF3F35B
:10050C00174A52689209C2F3080202FB03F37B619B
:10051C00134B5B681B0C03F0030301335B00FB60A4
:10052C007A69FB68B2FBF3F30E4A136003E00D4BE0
:10053C000D4A1A6000BF0A4B9B681B0903F00F039E
:10054C000B4AD35C3B61074B1A683B6922FA03F3F5
:10055C00044A136000BF1C37BD4680BC704700BF07
:10056C0000380240080000200024F40000127A0039
:10057C00C014000880B584B000AF0346FB710023A3
:10058C00FB601AE0FB68D9B2FA7910481346DB001D
:10059C009B1AC218FB6813441B78002B14BF012351
:1005AC000023DBB21A46412000F084FE4FF47A702F
:1005BC0000F00EF8FB680133FB60FB68062BE1DDF5
:1005CC0000BF00BF1037BD4680BD00BFD01400086F
:1005DC0080B485B000AF78600023FB600023BB6063
:1005EC000023FB600BE00023BB6002E0BB6801331F
:1005FC00BB60BB68012BF9D9FB680133FB60FB685E
:10060C007A689A42EFD800BF00BF1437BD4680BC51
:10061C00704780B582B000AF00237B6000237B6005
:10062C0009E07B68D9B200230122412000F034FAA2
:10063C007B6801337B607B68062BF2D90023012297
:10064C000021432000F028FA00230122012143203D
:10065C0000F022FA00BF0837BD4680BD80B500AF60
:10066C00412000F00FFD422000F00CFD432000F073
:10067C0009FD442000F006FD452000F003FD00BFFD
:10068C0080BD80B500AF00F0C1F8002000F0CCF8C0
:10069C00012000F0C9F8022000F0C6F8032000F099
:1006AC00C3F8042000F0C0F800BF80BD80B500AFD7
:1006BC00002000F00DF9012000F00AF9022000F0F2
:1006CC0007F9032000F004F9042000F001F900BF41
:1006DC0080BD000080B586B000AFFFF7D2FFFFF7FA
:1006EC0098FF00F049F94FF031333B607AE000F0AD
:1006FC0071F900F0BDF90346FB72FB7A2F2B02D97E
:10070C00FB7A392B05D9FB7A232B02D0FB7A2A2BC7
:10071C0064D1FB7A232B35D1394B00221A7001237B
:10072C007B6100233B6111E0364A3B69134493F92A
:10073C00002039463B690B4493F900309A4202D0B1
:10074C0000237B6105E03B6901333B613B69032B73
:10075C00EADD7B69002B0AD001220021432000F046
:10076C00A9FD00220121432000F0A4FD36E0012266
:10077C000121432000F09EFD00220021432000F0C7
:10078C0099FD2BE0FB7A2A2B11D10023FB6007E0AB
:10079C001C4AFB68134400221A70FB680133FB608F
:1007AC00FB68032BF4DD164B00221A7016E0144B79
:1007BC001B78032B0AD8124B1B785A1CD1B2104A47
:1007CC0011701A4697F90B100E4B9954FB7A303B6B
:1007DC007B607B68DBB21846FFF7CCFE42F21070F0
:1007EC00FFF7F6FE084B1B68012B80D0FFF736FF96
:1007FC00FFF75CFF002318461837BD4680BD00BFCD
:10080C0024000020200000200C00002080B400AF49
:10081C00044B1B68034A43F00103136000BFBD4641
:10082C0080BC70470038024080B485B000AF0346EE
:10083C00FB71FB795B09FB73FB7903F01F03BB7343
:10084C00FB7B032B36D801A252F823F06908000871
:10085C007F08000895080008AB080008184B1B68B7
:10086C00BA7B012101FA02F21146154A0B431360BF
:10087C0021E0144B1B68BA7B012101FA02F21146EC
:10088C00104A0B43136016E00F4B1B68BA7B012117
:10089C0001FA02F211460C4A0B4313600BE00B4BAE
:1008AC001B68BA7B012101FA02F21146074A0B437D
:1008BC00136000E000BF00BF1437BD4680BC70471A
:1008CC00303802403438024040380240443802404C
:1008DC0080B485B000AF0346FB71FB795B09FB73F9
:1008EC00FB7903F01F03BB73FB7B032B36D801A2F0
:1008FC0052F823F011090008270900083D090008E7
:10090C0053090008184B1B68BA7B012101FA02F24B
:10091C001146154A0B43136021E0144B1B68BA7B3C
:10092C00012101FA02F21146104A0B43136016E042
:10093C000F4B1B68BA7B012101FA02F211460C4ADB
:10094C000B4313600BE00B4B1B68BA7B012101FAC4
:10095C0002F21146074A0B43136000E000BF00BFD0
:10096C001437BD4680BC7047103802401438024022
:10097C00203802402438024080B582B000AF0023FA
:10098C00FB710023FB7108E0F9790123002242205E
:10099C0000F082F8FB790133FB71FB79022BF3D960
:1009AC000C23FB710EE0F97900230122422000F0A8
:1009BC0073F8FB7901221946422000F07BFCFB798D
:1009CC000133FB71FB790F2BEDD900BF00BF08374A
:1009DC00BD4680BD80B582B000AF0023FB71002303
:1009EC00BB710023FB7136E0FB790C33DBB20022C8
:1009FC001946422000F05EFC0023BB711DE0BB7960
:100A0C001946422000F0F6FB0346002B12D1FA796E
:100A1C00B979154813465B00134403440B4493F90E
:100A2C000030DAB2114B1A70104B1B78184600F0DC
:100A3C0029F805E0BB790133BB71BB79022BDED9F8
:100A4C00FB790C33DBB201221946422000F032FC58
:100A5C00FB790133FB71FB79032BC5D900BF00BFB8
:100A6C000837BD4680BD00BF1000002025000020C7
:100A7C0080B400AF024B1B781846BD4680BC704753
:100A8C002500002080B483B000AF0346FB7100BF8B
:100A9C000C37BD4680BC704790B482B000AF0446A2
:100AAC00084611461A462346FB710346BB710B469A
:100ABC007B7113463B71FB79413B042B00F2D082D6
:100ACC0001A252F823F000BFE90A0008F90B000854
:100ADC00090D00083B0E00084B0F0008A44B1B68C7
:100AEC00BA795200032101FA02F2D2431146A04A0C
:100AFC000B4013609E4B1B687979BA79520001FA4E
:100B0C0002F211469A4A0B4313607B79002B35D0C5
:100B1C00012B40F0A7823B79002B02D0012B16D081
:100B2C0063E0944B1B68BA79012101FA02F2D243BB
:100B3C001146904A0B4013608E4B1B683979BA7979
:100B4C0001FA02F211468B4A0B43136015E0894BF4
:100B5C001B68BA79012101FA02F2D2431146854A87
:100B6C000B401360834B1B683979BA7901FA02F296
:100B7C001146804A0B43136000BF36E03B79012BD2
:100B8C0002D0022B18D02FE07B4B1B68BA79520095
:100B9C00032101FA02F2D2431146774A0B4013604B
:100BAC00754B1B68BA795200012101FA02F2114609
:100BBC00714A0B43136017E06F4B1B68BA795200F4
:100BCC00032101FA02F2D24311466B4A0B40136027
:100BDC00694B1B68BA795200022101FA02F21146E4
:100BEC00654A0B43136000BF00BF3BE2634B1B68BD
:100BFC00BA795200032101FA02F2D24311465F4A3C
:100C0C000B4013605D4B1B687979BA79520001FA7D
:100C1C0002F21146594A0B4313607B79002B35D0F5
:100C2C00012B40F021823B79002B02D0012B16D0F6
:100C3C0063E0534B1B68BA79012101FA02F2D243EB
:100C4C0011464F4A0B4013604D4B1B683979BA79EA
:100C5C0001FA02F211464A4A0B43136015E0484B65
:100C6C001B68BA79012101FA02F2D2431146444AB7
:100C7C000B401360424B1B683979BA7901FA02F2C6
:100C8C0011463F4A0B43136000BF36E03B79012B02
:100C9C0002D0022B18D02FE03A4B1B68BA795200C5
:100CAC00032101FA02F2D2431146364A0B4013607B
:100CBC00344B1B68BA795200012101FA02F2114639
:100CCC00304A0B43136017E02E4B1B68BA79520065
:100CDC00032101FA02F2D24311462A4A0B40136057
:100CEC00284B1B68BA795200022101FA02F2114614
:100CFC00244A0B43136000BF00BFB5E1224B1B68B5
:100D0C00BA795200032101FA02F2D24311461E4A6B
:100D1C000B4013601C4B1B687979BA79520001FAAD
:100D2C0002F21146184A0B4313607B79002B46D014
:100D3C00012B40F09B813B79002B02D0012B27D05B
:100D4C0074E0124B1B68BA79012101FA02F2D2430A
:100D5C0011460E4A0B4013600C4B1B683979BA795B
:100D6C0001FA02F21146094A0B43136026E000BF58
:100D7C0000000240040002400C000240000402404B
:100D8C00040402400C040240000802400408024023
:100D9C00A14B1B68BA79012101FA02F2D243114628
:100DAC009D4A0B4013609C4B1B683979BA7901FA48
:100DBC0002F21146984A0B43136000BF36E03B79B0
:100DCC00012B02D0022B18D02FE0944B1B68BA7960
:100DDC005200032101FA02F2D24311468F4A0B4012
:100DEC0013608E4B1B68BA795200012101FA02F292
:100DFC0011468A4A0B43136017E0884B1B68BA797B
:100E0C005200032101FA02F2D2431146834A0B40ED
:100E1C001360824B1B68BA795200022101FA02F26C
:100E2C0011467E4A0B43136000BF00BF1EE17C4B92
:100E3C001B68BA795200032101FA02F2D24311461F
:100E4C00774A0B401360764B1B687979BA7952005C
:100E5C0001FA02F21146724A0B4313607B79002BA4
:100E6C0035D0012B40F004813B79002B02D0012BB3
:100E7C0016D063E06B4B1B68BA79012101FA02F2C0
:100E8C00D2431146674A0B401360664B1B68397995
:100E9C00BA7901FA02F21146624A0B43136015E06B
:100EAC00604B1B68BA79012101FA02F2D243114658
:100EBC005C4A0B4013605B4B1B683979BA7901FAB9
:100ECC0002F21146574A0B43136000BF36E03B79E0
:100EDC00012B02D0022B18D02FE0534B1B68BA7990
:100EEC005200032101FA02F2D24311464E4A0B4042
:100EFC0013604D4B1B68BA795200012101FA02F2C2
:100F0C001146494A0B43136017E0474B1B68BA79EB
:100F1C005200032101FA02F2D2431146424A0B401D
:100F2C001360414B1B68BA795200022101FA02F29C
:100F3C0011463D4A0B43136000BF00BF98E0384B8D
:100F4C001B68BA795200032101FA02F2D24311460E
:100F5C00334A0B401360324B1B687979BA795200D3
:100F6C0001FA02F211462E4A0B4313607B79002BD7
:100F7C0034D0012B7ED13B79002B02D0012B16D023
:100F8C006DE0284B1B68BA79012101FA02F2D243B9
:100F9C001146244A0B401360224B1B683979BA79ED
:100FAC0001FA02F211461F4A0B43136015E01D4B68
:100FBC001B68BA79012101FA02F2D2431146194A8F
:100FCC000B401360174B1B683979BA7901FA02F29E
:100FDC001146144A0B43136000BF40E03B79012BD0
:100FEC0002D0022B22D039E00F4B1B68BA79520089
:100FFC00032101FA02F2D24311460B4A0B40136053
:10100C00094B1B68BA795200012101FA02F2114610
:10101C00054A0B43136021E0040802400C0802400F
:10102C00000C0240040C02400C0C0240144B1B68D8
:10103C00BA795200032101FA02F2D2431146104A46
:10104C000B4013600E4B1B68BA795200022101FA57
:10105C0002F211460A4A0B43136000BF00BF09E0BD
:10106C0000BF08E000BF06E000BF04E000BF02E0E4
:10107C0000BF00E000BF00BF0837BD4690BC704702
:10108C000C0C024080B582B000AF0346FB71FB79BB
:10109C00413B042B00F29F8001A252F823F000BFC9
:1010AC00C1100008FB100008351100086F11000872
:1010BC00A91100084A4B00221A6010E0494B1B682A
:1010CC00474A12685200032101FA02F21146454ABE
:1010DC000B431360424B1B680133414A1360404B76
:1010EC001B68062BEAD90020FFF7F2FB74E03C4B9F
:1010FC0000221A6010E03C4B1B68394A12685200FF
:10110C00032101FA02F21146374A0B431360344BA8
:10111C001B680133324A1360314B1B68062BEAD92A
:10112C000120FFF7D5FB57E02D4B00221A6010E091
:10113C002E4B1B682A4A12685200032101FA02F254
:10114C0011462A4A0B431360254B1B680133244A72
:10115C001360234B1B68062BEAD90220FFF7B8FB60
:10116C003AE01F4B00221A6010E0214B1B681C4A0E
:10117C0012685200032101FA02F211461C4A0B4379
:10118C001360174B1B680133154A1360144B1B6813
:10119C00062BEAD90320FFF79BFB1DE0104B002226
:1011AC001A6010E0124B1B680D4A126852000321A2
:1011BC0001FA02F211460E4A0B431360084B1B68EE
:1011CC000133074A1360064B1B68062BEAD904202F
:1011DC00FFF77EFB00E000BF00BF0837BD4680BDB7
:1011EC00280000201400024014040240140802409D
:1011FC00140C024080B483B000AF03460A46FB7166
:10120C001346BB71FB79413B042B44D801A252F825
:10121C0023F000BF351200084B12000861120008C1
:10122C00771200088D1200081E4B1B68BA79012139
:10123C0001FA02F21A40BB7922FA03F32DE01A4BA1
:10124C001B68BA79012101FA02F21A40BB7922FA21
:10125C0003F322E0154B1B68BA79012101FA02F263
:10126C001A40BB7922FA03F317E0114B1B68BA79C9
:10127C00012101FA02F21A40BB7922FA03F30CE0C5
:10128C000B4B1B68BA79012101FA02F21A40BB79A7
:10129C0022FA03F301E000BF002318460C37BD46C9
:1012AC0080BC70471000024010040240100802403D
:1012BC00100C024080B485B000AF0346FB710B46A6
:1012CC00BB7113467B71734B1B68BA7952000321B7
:1012DC0001FA02F21A40BB795B0022FA03F3FB73AA
:1012EC006D4B1B68BA795200032101FA02F21A40C5
:1012FC00BB795B0022FA03F3BB73684B1B68BA79AA
:10130C005200032101FA02F21A40BB795B0022FA67
:10131C0003F37B73624B1B68BA795200032101FA09
:10132C0002F21A40BB795B0022FA03F33B735C4B6D
:10133C001B68BA795200032101FA02F21A40BB79F8
:10134C005B0022FA03F3FB72FB79413B042B00F2A6
:10135C00998001A252F823F079130008B113000808
:10136C00E91300082114000859140008FB7B002B1A
:10137C0016D04C4B1B68BA79012101FA02F2D24308
:10138C001146484A0B401360464B1B687979BA7971
:10139C0001FA02F21146434A0B431360012373E036
:1013AC00002371E0BB7B002B16D03F4B1B68BA7936
:1013BC00012101FA02F2D24311463B4A0B40136061
:1013CC00394B1B687979BA7901FA02F21146364A1F
:1013DC000B431360012357E0002355E07B7B002B6C
:1013EC0016D0324B1B68BA79012101FA02F2D243B2
:1013FC0011462E4A0B4013602C4B1B687979BA7935
:10140C0001FA02F21146294A0B43136001233BE017
:10141C00002339E03B7B002B16D0254B1B68BA7997
:10142C00012101FA02F2D2431146214A0B4013600A
:10143C001F4B1B687979BA7901FA02F211461C4AE2
:10144C000B43136001231FE000231DE0FB7A002BEC
:10145C0016D0174B1B68BA79012101FA02F2D2435C
:10146C001146134A0B401360114B1B687979BA79FA
:10147C0001FA02F211460E4A0B431360012303E0FA
:10148C00002301E000BF002318461437BD4680BC82
:10149C00704700BF000002400004024000080240F8
:1014AC00000C0240140002401404024014080240D4
:1014BC00140C0240000000000000000001020304B4
:1014CC0006070809000101010101010000000001EB
:1014DC0001000100010100010101000001010101F5
:1014EC0001010000010100010100010100010101E5
:1014FC0001010100010000000001010101010101D5
:0A150C0001010101010001010101CC
:101518001C000020000000000024F400010000006E
:0C1528003132333435363738392A30235D
:040000050800019559
:00000001FF
